STMTTXN_000064500000_
000064500000100000001009720200311000000000100000RMB20200908-00000000300000RMBaaaaPOSbbbb                                                                     cccccccccccccccccccccc                                                                                                                                                                                                 20201005123456D                                                                                                                                                                                                                     
000064500000100000002009720200311000000000100000RMB20200908-00000000300000RMBaaaaPOSbbbb                                                                     cccccccccccccccccccccc                                                                                                                                                                                                 20201005123456C                                                                                                                                                                                                                     
000064500000100000003009720200311000000000100000RMB20200908-00000000300000RMBaaaaPOSbbbb                                                                     cccccccccccccccccccccc                                                                                                                                                                                                 20201005123456D                                                                                                                                                                                                                     
000064500000100000004009720200311000000000100000RMB20200908-00000000300000RMBaaaaPOSbbbb                                                                     cccccccccccccccccccccc                                                                                                                                                                                                 20201005123456C                                                                                                                                                                                                                     
000064500000100000005009720200311000000000100000RMB20200908-00000000300000RMBaaaaPOSbbbb                                                                     cccccccccccccccccccccc                                                                                                                                                                                                 20201005123456C                                                                                                                                                                                                                     
000064500000100000006009720200311000000000100000RMB20200908-00000000300000RMBaaaaPOSbbbb                                                                     cccccccccccccccccccccc                                                                                                                                                                                                 20201005123456D                                                                                                                                                                                                                     
000064500000100000007009720200311000000000100000RMB20200908-00000000300000RMBaaaaPOSbbbb                                                                     cccccccccccccccccccccc                                                                                                                                                                                                 20201005123456C                                                                                                                                                                                                                     
000064500000100000008009720200311000000000100000RMB20200908-00000000300000RMBaaaaPOSbbbb                                                                     cccccccccccccccccccccc                                                                                                                                                                                                 20201005123456D                                                                                                                                                                                                                     
000064500000100000009009720200311000000000100000RMB20200908-00000000300000RMBaaaaPOSbbbb                                                                     cccccccccccccccccccccc                                                                                                                                                                                                 20201005123456C                                                                                                                                                                                                                     
000064500000100000010009720200311000000000100000RMB20200908-00000000300000RMBaaaaPOSbbbb                                                                     cccccccccccccccccccccc                                                                                                                                                                                                 20201005123456C                                                                                                                                                                                                                     
000064500000100000011009720200311000000000100000RMB20200908-00000000300000RMBaaaaPOSbbbb                                                                     cccccccccccccccccccccc                                                                                                                                                                                                 20201005123456D                                                                                                                                                                                                                     
000064500000100000012009720200311000000000100000RMB20200908-00000000300000RMBaaaaPOSbbbb                                                                     cccccccccccccccccccccc                                                                                                                                                                                                 20201005123456C                                                                                                                                                                                                                     
000064500000100000013009720200311000000000100000RMB20200908-00000000300000RMBaaaaPOSbbbb                                                                     cccccccccccccccccccccc                                                                                                                                                                                                 20201005123456D                                                                                                                                                                                                                     
000064500000100000014009720200311000000000100000RMB20200908-00000000300000RMBaaaaPOSbbbb                                                                     cccccccccccccccccccccc                                                                                                                                                                                                 20201005123456C                                                                                                                                                                                                                     
000064500000100000015009720200311000000000100000RMB20200908-00000000300000RMBaaaaPOSbbbb                                                                     cccccccccccccccccccccc                                                                                                                                                                                                 20201005123456C                                                                                                                                                                                                                     
000064500000100000016009720200311000000000100000RMB20200908-00000000300000RMBaaaaPOSbbbb                                                                     cccccccccccccccccccccc                                                                                                                                                                                                 20201005123456D                                                                                                                                                                                                                     
000064500000100000017009720200311000000000100000RMB20200908-00000000300000RMBaaaaPOSbbbb                                                                     cccccccccccccccccccccc                                                                                                                                                                                                 20201005123456C                                                                                                                                                                                                                     
000064500000100000018009720200311000000000100000RMB20200908-00000000300000RMBaaaaPOSbbbb                                                                     cccccccccccccccccccccc                                                                                                                                                                                                 20201005123456D                                                                                                                                                                                                                     
000064500000100000019009720200311000000000100000RMB20200908-00000000300000RMBaaaaPOSbbbb                                                                     cccccccccccccccccccccc                                                                                                                                                                                                 20201005123456C                                                                                                                                                                                                                     
000064500000100000020009720200311000000000100000RMB20200908-00000000300000RMBaaaaPOSbbbb                                                                     cccccccccccccccccccccc                                                                                                                                                                                                 20201005123456C                                                                                                                                                                                                                     
000064500000100000021009720200311000000000100000RMB20200908-00000000300000RMBaaaaPOSbbbb                                                                     cccccccccccccccccccccc                                                                                                                                                                                                 20201005123456D                                                                                                                                                                                                                     
000064500000100000022009720200311000000000100000RMB20200908-00000000300000RMBaaaaPOSbbbb                                                                     cccccccccccccccccccccc                                                                                                                                                                                                 20201005123456C                                                                                                                                                                                                                     
000064500000100000023009720200311000000000100000RMB20200908-00000000300000RMBaaaaPOSbbbb                                                                     cccccccccccccccccccccc                                                                                                                                                                                                 20201005123456D                                                                                                                                                                                                                     
000064500000100000024009720200311000000000100000RMB20200908-00000000300000RMBaaaaPOSbbbb                                                                     cccccccccccccccccccccc                                                                                                                                                                                                 20201005123456C                                                                                                                                                                                                                     
000064500000100000025009720200311000000000100000RMB20200908-00000000300000RMBaaaaPOSbbbb                                                                     cccccccccccccccccccccc                                                                                                                                                                                                 20201005123456C                                                                                                                                                                                                                     
000064500000100000026009720200311000000000100000RMB20200908-00000000300000RMBaaaaPOSbbbb                                                                     cccccccccccccccccccccc                                                                                                                                                                                                 20201005123456D                                                                                                                                                                                                                     
000064500000100000027009720200311000000000100000RMB20200908-00000000300000RMBaaaaPOSbbbb                                                                     cccccccccccccccccccccc                                                                                                                                                                                                 20201005123456C                                                                                                                                                                                                                     
000064500000100000028009720200311000000000100000RMB20200908-00000000300000RMBaaaaPOSbbbb                                                                     cccccccccccccccccccccc                                                                                                                                                                                                 20201005123456D                                                                                                                                                                                                                     
000064500000100000029009720200311000000000100000RMB20200908-00000000300000RMBaaaaPOSbbbb                                                                     cccccccccccccccccccccc                                                                                                                                                                                                 20201005123456C                                                                                                                                                                                                                     
000064500000100000030009720200311000000000100000RMB20200908-00000000300000RMBaaaaPOSbbbb                                                                     cccccccccccccccccccccc                                                                                                                                                                                                 20201005123456C                                                                                                                                                                                                                     
000064500000100000031009720200311000000000100000RMB20200908-00000000300000RMBaaaaPOSbbbb                                                                     cccccccccccccccccccccc                                                                                                                                                                                                 20201005123456D                                                                                                                                                                                                                     
000064500000100000032009720200311000000000100000RMB20200908-00000000300000RMBaaaaPOSbbbb                                                                     cccccccccccccccccccccc                                                                                                                                                                                                 20201005123456C                                                                                                                                                                                                                     
000064500000100000033009720200311000000000100000RMB20200908-00000000300000RMBaaaaPOSbbbb                                                                     cccccccccccccccccccccc                                                                                                                                                                                                 20201005123456D                                                                                                                                                                                                                     
000064500000100000034009720200311000000000100000RMB20200908-00000000300000RMBaaaaPOSbbbb                                                                     cccccccccccccccccccccc                                                                                                                                                                                                 20201005123456C                                                                                                                                                                                                                     
000064500000100000035009720200311000000000100000RMB20200908-00000000300000RMBaaaaPOSbbbb                                                                     cccccccccccccccccccccc                                                                                                                                                                                                 20201005123456C                                                                                                                                                                                                                     
000064500000100000036009720200311000000000100000RMB20200908-00000000300000RMBaaaaPOSbbbb                                                                     cccccccccccccccccccccc                                                                                                                                                                                                 20201005123456D                                                                                                                                                                                                                     
000064500000100000037009720200311000000000100000RMB20200908-00000000300000RMBaaaaPOSbbbb                                                                     cccccccccccccccccccccc                                                                                                                                                                                                 20201005123456C                                                                                                                                                                                                                     
000064500000100000038009720200311000000000100000RMB20200908-00000000300000RMBaaaaPOSbbbb                                                                     cccccccccccccccccccccc                                                                                                                                                                                                 20201005123456D                                                                                                                                                                                                                     
000064500000100000039009720200311000000000100000RMB20200908-00000000300000RMBaaaaPOSbbbb                                                                     cccccccccccccccccccccc                                                                                                                                                                                                 20201005123456C                                                                                                                                                                                                                     
000064500000100000040009720200311000000000100000RMB20200908-00000000300000RMBaaaaPOSbbbb                                                                     cccccccccccccccccccccc                                                                                                                                                                                                 20201005123456C                                                                                                                                                                                                                     
000064500000100000041009720200311000000000100000RMB20200908-00000000300000RMBaaaaPOSbbbb                                                                     cccccccccccccccccccccc                                                                                                                                                                                                 20201005123456D                                                                                                                                                                                                                     
000064500000100000042009720200311000000000100000RMB20200908-00000000300000RMBaaaaPOSbbbb                                                                     cccccccccccccccccccccc                                                                                                                                                                                                 20201005123456C                                                                                                                                                                                                                     
000064500000100000043009720200311000000000100000RMB20200908-00000000300000RMBaaaaPOSbbbb                                                                     cccccccccccccccccccccc                                                                                                                                                                                                 20201005123456D                                                                                                                                                                                                                     
000064500000100000044009720200311000000000100000RMB20200908-00000000300000RMBaaaaPOSbbbb                                                                     cccccccccccccccccccccc                                                                                                                                                                                                 20201005123456C                                                                                                                                                                                                                     
000064500000100000045009720200311000000000100000RMB20200908-00000000300000RMBaaaaPOSbbbb                                                                     cccccccccccccccccccccc                                                                                                                                                                                                 20201005123456C                                                                                                                                                                                                                     
000064500000100000046009720200311000000000100000RMB20200908-00000000300000RMBaaaaPOSbbbb                                                                     cccccccccccccccccccccc                                                                                                                                                                                                 20201005123456D                                                                                                                                                                                                                     
000064500000100000047009720200311000000000100000RMB20200908-00000000300000RMBaaaaPOSbbbb                                                                     cccccccccccccccccccccc                                                                                                                                                                                                 20201005123456C                                                                                                                                                                                                                     
000064500000100000048009720200311000000000100000RMB20200908-00000000300000RMBaaaaPOSbbbb                                                                     cccccccccccccccccccccc                                                                                                                                                                                                 20201005123456D                                                                                                                                                                                                                     
000064500000100000049009720200311000000000100000RMB20200908-00000000300000RMBaaaaPOSbbbb                                                                     cccccccccccccccccccccc                                                                                                                                                                                                 20201005123456C                                                                                                                                                                                                                     
000064500000100000050009720200311000000000100000RMB20200908-00000000300000RMBaaaaPOSbbbb                                                                     cccccccccccccccccccccc                                                                                                                                                                                                 20201005123456C                                                                                                                                                                                                                     
000064500000100000051009720200311000000000100000RMB20200908-00000000300000RMBaaaaPOSbbbb                                                                     cccccccccccccccccccccc                                                                                                                                                                                                 20201005123456D                                                                                                                                                                                                                     
000064500000100000052009720200311000000000100000RMB20200908-00000000300000RMBaaaaPOSbbbb                                                                     cccccccccccccccccccccc                                                                                                                                                                                                 20201005123456C                                                                                                                                                                                                                     
000064500000100000053009720200311000000000100000RMB20200908-00000000300000RMBaaaaPOSbbbb                                                                     cccccccccccccccccccccc                                                                                                                                                                                                 20201005123456D                                                                                                                                                                                                                     
000064500000100000054009720200311000000000100000RMB20200908-00000000300000RMBaaaaPOSbbbb                                                                     cccccccccccccccccccccc                                                                                                                                                                                                 20201005123456C                                                                                                                                                                                                                     
000064500000100000055009720200311000000000100000RMB20200908-00000000300000RMBaaaaPOSbbbb                                                                     cccccccccccccccccccccc                                                                                                                                                                                                 20201005123456C                                                                                                                                                                                                                     
000064500000100000056009720200311000000000100000RMB20200908-00000000300000RMBaaaaPOSbbbb                                                                     cccccccccccccccccccccc                                                                                                                                                                                                 20201005123456D                                                                                                                                                                                                                     
000064500000100000057009720200311000000000100000RMB20200908-00000000300000RMBaaaaPOSbbbb                                                                     cccccccccccccccccccccc                                                                                                                                                                                                 20201005123456C                                                                                                                                                                                                                     
000064500000100000058009720200311000000000100000RMB20200908-00000000300000RMBaaaaPOSbbbb                                                                     cccccccccccccccccccccc                                                                                                                                                                                                 20201005123456D                                                                                                                                                                                                                     
000064500000100000059009720200311000000000100000RMB20200908-00000000300000RMBaaaaPOSbbbb                                                                     cccccccccccccccccccccc                                                                                                                                                                                                 20201005123456C                                                                                                                                                                                                                     
000064500000100000060009720200311000000000100000RMB20200908-00000000300000RMBaaaaPOSbbbb                                                                     cccccccccccccccccccccc                                                                                                                                                                                                 20201005123456C                                                                                                                                                                                                                     
000064500000100000061009720200311000000000100000RMB20200908-00000000300000RMBaaaaPOSbbbb                                                                     cccccccccccccccccccccc                                                                                                                                                                                                 20201005123456D                                                                                                                                                                                                                     
000064500000100000062009720200311000000000100000RMB20200908-00000000300000RMBaaaaPOSbbbb                                                                     cccccccccccccccccccccc                                                                                                                                                                                                 20201005123456C                                                                                                                                                                                                                     
000064500000100000063009720200311000000000100000RMB20200908-00000000300000RMBaaaaPOSbbbb                                                                     cccccccccccccccccccccc                                                                                                                                                                                                 20201005123456D                                                                                                                                                                                                                     
000064500000100000064009720200311000000000100000RMB20200908-00000000300000RMBaaaaPOSbbbb                                                                     cccccccccccccccccccccc                                                                                                                                                                                                 20201005123456C                                                                                                                                                                                                                     
000064500000100000065009720200311000000000100000RMB20200908-00000000300000RMBaaaaPOSbbbb                                                                     cccccccccccccccccccccc                                                                                                                                                                                                 20201005123456C                                                                                                                                                                                                                     
000064500000100000066009720200311000000000100000RMB20200908-00000000300000RMBaaaaPOSbbbb                                                                     cccccccccccccccccccccc                                                                                                                                                                                                 20201005123456D                                                                                                                                                                                                                     
000064500000100000067009720200311000000000100000RMB20200908-00000000300000RMBaaaaPOSbbbb                                                                     cccccccccccccccccccccc                                                                                                                                                                                                 20201005123456C                                                                                                                                                                                                                     
000064500000100000068009720200311000000000100000RMB20200908-00000000300000RMBaaaaPOSbbbb                                                                     cccccccccccccccccccccc                                                                                                                                                                                                 20201005123456D                                                                                                                                                                                                                     
000064500000100000069009720200311000000000100000RMB20200908-00000000300000RMBaaaaPOSbbbb                                                                     cccccccccccccccccccccc                                                                                                                                                                                                 20201005123456C                                                                                                                                                                                                                     
000064500000100000070009720200311000000000100000RMB20200908-00000000300000RMBaaaaPOSbbbb                                                                     cccccccccccccccccccccc                                                                                                                                                                                                 20201005123456C                                                                                                                                                                                                                     
000064500000100000071009720200311000000000100000RMB20200908-00000000300000RMBaaaaPOSbbbb                                                                     cccccccccccccccccccccc                                                                                                                                                                                                 20201005123456D                                                                                                                                                                                                                     
000064500000100000072009720200311000000000100000RMB20200908-00000000300000RMBaaaaPOSbbbb                                                                     cccccccccccccccccccccc                                                                                                                                                                                                 20201005123456C                                                                                                                                                                                                                     
000064500000100000073009720200311000000000100000RMB20200908-00000000300000RMBaaaaPOSbbbb                                                                     cccccccccccccccccccccc                                                                                                                                                                                                 20201005123456D                                                                                                                                                                                                                     
000064500000100000074009720200311000000000100000RMB20200908-00000000300000RMBaaaaPOSbbbb                                                                     cccccccccccccccccccccc                                                                                                                                                                                                 20201005123456C                                                                                                                                                                                                                     
000064500000100000075009720200311000000000100000RMB20200908-00000000300000RMBaaaaPOSbbbb                                                                     cccccccccccccccccccccc                                                                                                                                                                                                 20201005123456C                                                                                                                                                                                                                     
000064500000100000076009720200311000000000100000RMB20200908-00000000300000RMBaaaaPOSbbbb                                                                     cccccccccccccccccccccc                                                                                                                                                                                                 20201005123456D                                                                                                                                                                                                                     
000064500000100000077009720200311000000000100000RMB20200908-00000000300000RMBaaaaPOSbbbb                                                                     cccccccccccccccccccccc                                                                                                                                                                                                 20201005123456C                                                                                                                                                                                                                     
000064500000100000078009720200311000000000100000RMB20200908-00000000300000RMBaaaaPOSbbbb                                                                     cccccccccccccccccccccc                                                                                                                                                                                                 20201005123456D                                                                                                                                                                                                                     
000064500000100000079009720200311000000000100000RMB20200908-00000000300000RMBaaaaPOSbbbb                                                                     cccccccccccccccccccccc                                                                                                                                                                                                 20201005123456C                                                                                                                                                                                                                     
000064500000100000080009720200311000000000100000RMB20200908-00000000300000RMBaaaaPOSbbbb                                                                     cccccccccccccccccccccc                                                                                                                                                                                                 20201005123456C                                                                                                                                                                                                                     
000064500000100000081009720200311000000000100000RMB20200908-00000000300000RMBaaaaPOSbbbb                                                                     cccccccccccccccccccccc                                                                                                                                                                                                 20201005123456D                                                                                                                                                                                                                     
000064500000100000082009720200311000000000100000RMB20200908-00000000300000RMBaaaaPOSbbbb                                                                     cccccccccccccccccccccc                                                                                                                                                                                                 20201005123456C                                                                                                                                                                                                                     
000064500000100000083009720200311000000000100000RMB20200908-00000000300000RMBaaaaPOSbbbb                                                                     cccccccccccccccccccccc                                                                                                                                                                                                 20201005123456D                                                                                                                                                                                                                     
000064500000100000084009720200311000000000100000RMB20200908-00000000300000RMBaaaaPOSbbbb                                                                     cccccccccccccccccccccc                                                                                                                                                                                                 20201005123456C                                                                                                                                                                                                                     
000064500000100000085009720200311000000000100000RMB20200908-00000000300000RMBaaaaPOSbbbb                                                                     cccccccccccccccccccccc                                                                                                                                                                                                 20201005123456C                                                                                                                                                                                                                     
000064500000100000086009720200311000000000100000RMB20200908-00000000300000RMBaaaaPOSbbbb                                                                     cccccccccccccccccccccc                                                                                                                                                                                                 20201005123456D                                                                                                                                                                                                                     
000064500000100000087009720200311000000000100000RMB20200908-00000000300000RMBaaaaPOSbbbb                                                                     cccccccccccccccccccccc                                                                                                                                                                                                 20201005123456C                                                                                                                                                                                                                     
000064500000100000088009720200311000000000100000RMB20200908-00000000300000RMBaaaaPOSbbbb                                                                     cccccccccccccccccccccc                                                                                                                                                                                                 20201005123456D                                                                                                                                                                                                                     
000064500000100000089009720200311000000000100000RMB20200908-00000000300000RMBaaaaPOSbbbb                                                                     cccccccccccccccccccccc                                                                                                                                                                                                 20201005123456C                                                                                                                                                                                                                     
000064500000100000090009720200311000000000100000RMB20200908-00000000300000RMBaaaaPOSbbbb                                                                     cccccccccccccccccccccc                                                                                                                                                                                                 20201005123456C                                                                                                                                                                                                                     
000064500000100000091009720200311000000000100000RMB20200908-00000000300000RMBaaaaPOSbbbb                                                                     cccccccccccccccccccccc                                                                                                                                                                                                 20201005123456D                                                                                                                                                                                                                     
000064500000100000092009720200311000000000100000RMB20200908-00000000300000RMBaaaaPOSbbbb                                                                     cccccccccccccccccccccc                                                                                                                                                                                                 20201005123456C                                                                                                                                                                                                                     
000064500000100000093009720200311000000000100000RMB20200908-00000000300000RMBaaaaPOSbbbb                                                                     cccccccccccccccccccccc                                                                                                                                                                                                 20201005123456D                                                                                                                                                                                                                     
000064500000100000094009720200311000000000100000RMB20200908-00000000300000RMBaaaaPOSbbbb                                                                     cccccccccccccccccccccc                                                                                                                                                                                                 20201005123456C                                                                                                                                                                                                                     
000064500000100000095009720200311000000000100000RMB20200908-00000000300000RMBaaaaPOSbbbb                                                                     cccccccccccccccccccccc                                                                                                                                                                                                 20201005123456C                                                                                                                                                                                                                     
000064500000100000096009720200311000000000100000RMB20200908-00000000300000RMBaaaaPOSbbbb                                                                     cccccccccccccccccccccc                                                                                                                                                                                                 20201005123456D                                                                                                                                                                                                                     
000064500000100000097009720200311000000000100000RMB20200908-00000000300000RMBaaaaPOSbbbb                                                                     cccccccccccccccccccccc                                                                                                                                                                                                 20201005123456C                                                                                                                                                                                                                     
000064500000100000098009720200311000000000100000RMB20200908-00000000300000RMBaaaaPOSbbbb                                                                     cccccccccccccccccccccc                                                                                                                                                                                                 20201005123456D                                                                                                                                                                                                                     
000064500000100000099009720200311000000000100000RMB20200908-00000000300000RMBaaaaPOSbbbb                                                                     cccccccccccccccccccccc                                                                                                                                                                                                 20201005123456C                                                                                                                                                                                                                     
000064500000100000100009720200311000000000100000RMB20200908-00000000300000RMBaaaaPOSbbbb                                                                     cccccccccccccccccccccc                                                                                                                                                                                                 20201005123456C                                                                                                                                                                                                                     
000064500000100000101009720200311000000000100000RMB20200908-00000000300000RMBaaaaPOSbbbb                                                                     cccccccccccccccccccccc                                                                                                                                                                                                 20201005123456D                                                                                                                                                                                                                     
000064500000100000102009720200311000000000100000RMB20200908-00000000300000RMBaaaaPOSbbbb                                                                     cccccccccccccccccccccc                                                                                                                                                                                                 20201005123456C                                                                                                                                                                                                                     
000064500000100000103009720200311000000000100000RMB20200908-00000000300000RMBaaaaPOSbbbb                                                                     cccccccccccccccccccccc                                                                                                                                                                                                 20201005123456D                                                                                                                                                                                                                     
000064500000100000104009720200311000000000100000RMB20200908-00000000300000RMBaaaaPOSbbbb                                                                     cccccccccccccccccccccc                                                                                                                                                                                                 20201005123456C                                                                                                                                                                                                                     
000064500000100000105009720200311000000000100000RMB20200908-00000000300000RMBaaaaPOSbbbb                                                                     cccccccccccccccccccccc                                                                                                                                                                                                 20201005123456C                                                                                                                                                                                                                     
000064500000100000106009720200311000000000100000RMB20200908-00000000300000RMBaaaaPOSbbbb                                                                     cccccccccccccccccccccc                                                                                                                                                                                                 20201005123456D                                                                                                                                                                                                                     
000064500000100000107009720200311000000000100000RMB20200908-00000000300000RMBaaaaPOSbbbb                                                                     cccccccccccccccccccccc                                                                                                                                                                                                 20201005123456C                                                                                                                                                                                                                     
000064500000100000108009720200311000000000100000RMB20200908-00000000300000RMBaaaaPOSbbbb                                                                     cccccccccccccccccccccc                                                                                                                                                                                                 20201005123456D                                                                                                                                                                                                                     
000064500000100000109009720200311000000000100000RMB20200908-00000000300000RMBaaaaPOSbbbb                                                                     cccccccccccccccccccccc                                                                                                                                                                                                 20201005123456C                                                                                                                                                                                                                     
000064500000100000110009720200311000000000100000RMB20200908-00000000300000RMBaaaaPOSbbbb                                                                     cccccccccccccccccccccc                                                                                                                                                                                                 20201005123456C                                                                                                                                                                                                                     
000064500000100000111009720200311000000000100000RMB20200908-00000000300000RMBaaaaPOSbbbb                                                                     cccccccccccccccccccccc                                                                                                                                                                                                 20201005123456D                                                                                                                                                                                                                     
000064500000100000112009720200311000000000100000RMB20200908-00000000300000RMBaaaaPOSbbbb                                                                     cccccccccccccccccccccc                                                                                                                                                                                                 20201005123456C                                                                                                                                                                                                                     
000064500000100000113009720200311000000000100000RMB20200908-00000000300000RMBaaaaPOSbbbb                                                                     cccccccccccccccccccccc                                                                                                                                                                                                 20201005123456D                                                                                                                                                                                                                     
000064500000100000114009720200311000000000100000RMB20200908-00000000300000RMBaaaaPOSbbbb                                                                     cccccccccccccccccccccc                                                                                                                                                                                                 20201005123456C                                                                                                                                                                                                                     
000064500000100000115009720200311000000000100000RMB20200908-00000000300000RMBaaaaPOSbbbb                                                                     cccccccccccccccccccccc                                                                                                                                                                                                 20201005123456C                                                                                                                                                                                                                     
000064500000100000116009720200311000000000100000RMB20200908-00000000300000RMBaaaaPOSbbbb                                                                     cccccccccccccccccccccc                                                                                                                                                                                                 20201005123456D                                                                                                                                                                                                                     
000064500000100000117009720200311000000000100000RMB20200908-00000000300000RMBaaaaPOSbbbb                                                                     cccccccccccccccccccccc                                                                                                                                                                                                 20201005123456C                                                                                                                                                                                                                     
000064500000100000118009720200311000000000100000RMB20200908-00000000300000RMBaaaaPOSbbbb                                                                     cccccccccccccccccccccc                                                                                                                                                                                                 20201005123456D                                                                                                                                                                                                                     
000064500000100000119009720200311000000000100000RMB20200908-00000000300000RMBaaaaPOSbbbb                                                                     cccccccccccccccccccccc                                                                                                                                                                                                 20201005123456C                                                                                                                                                                                                                     
000064500000100000120009720200311000000000100000RMB20200908-00000000300000RMBaaaaPOSbbbb                                                                     cccccccccccccccccccccc                                                                                                                                                                                                 20201005123456C                                                                                                                                                                                                                     
000064500000100000121009720200311000000000100000RMB20200908-00000000300000RMBaaaaPOSbbbb                                                                     cccccccccccccccccccccc                                                                                                                                                                                                 20201005123456D                                                                                                                                                                                                                     
000064500000100000122009720200311000000000100000RMB20200908-00000000300000RMBaaaaPOSbbbb                                                                     cccccccccccccccccccccc                                                                                                                                                                                                 20201005123456C                                                                                                                                                                                                                     
000064500000100000123009720200311000000000100000RMB20200908-00000000300000RMBaaaaPOSbbbb                                                                     cccccccccccccccccccccc                                                                                                                                                                                                 20201005123456D                                                                                                                                                                                                                     
000064500000100000124009720200311000000000100000RMB20200908-00000000300000RMBaaaaPOSbbbb                                                                     cccccccccccccccccccccc                                                                                                                                                                                                 20201005123456C                                                                                                                                                                                                                     
000064500000100000125009720200311000000000100000RMB20200908-00000000300000RMBaaaaPOSbbbb                                                                     cccccccccccccccccccccc                                                                                                                                                                                                 20201005123456C                                                                                                                                                                                                                     
000064500000100000126009720200311000000000100000RMB20200908-00000000300000RMBaaaaPOSbbbb                                                                     cccccccccccccccccccccc                                                                                                                                                                                                 20201005123456D                                                                                                                                                                                                                     
000064500000100000127009720200311000000000100000RMB20200908-00000000300000RMBaaaaPOSbbbb                                                                     cccccccccccccccccccccc                                                                                                                                                                                                 20201005123456C                                                                                                                                                                                                                     
000064500000100000128009720200311000000000100000RMB20200908-00000000300000RMBaaaaPOSbbbb                                                                     cccccccccccccccccccccc                                                                                                                                                                                                 20201005123456D                                                                                                                                                                                                                     
000064500000100000129009720200311000000000100000RMB20200908-00000000300000RMBaaaaPOSbbbb                                                                     cccccccccccccccccccccc                                                                                                                                                                                                 20201005123456C                                                                                                                                                                                                                     
000064500000100000130009720200311000000000100000RMB20200908-00000000300000RMBaaaaPOSbbbb                                                                     cccccccccccccccccccccc                                                                                                                                                                                                 20201005123456C                                                                                                                                                                                                                     
000064500000100000131009720200311000000000100000RMB20200908-00000000300000RMBaaaaPOSbbbb                                                                     cccccccccccccccccccccc                                                                                                                                                                                                 20201005123456D                                                                                                                                                                                                                     
000064500000100000132009720200311000000000100000RMB20200908-00000000300000RMBaaaaPOSbbbb                                                                     cccccccccccccccccccccc                                                                                                                                                                                                 20201005123456C                                                                                                                                                                                                                     
000064500000100000133009720200311000000000100000RMB20200908-00000000300000RMBaaaaPOSbbbb                                                                     cccccccccccccccccccccc                                                                                                                                                                                                 20201005123456D                                                                                                                                                                                                                     
000064500000100000134009720200311000000000100000RMB20200908-00000000300000RMBaaaaPOSbbbb                                                                     cccccccccccccccccccccc                                                                                                                                                                                                 20201005123456C                                                                                                                                                                                                                     
000064500000100000135009720200311000000000100000RMB20200908-00000000300000RMBaaaaPOSbbbb                                                                     cccccccccccccccccccccc                                                                                                                                                                                                 20201005123456C                                                                                                                                                                                                                     
000064500000100000136009720200311000000000100000RMB20200908-00000000300000RMBaaaaPOSbbbb                                                                     cccccccccccccccccccccc                                                                                                                                                                                                 20201005123456D                                                                                                                                                                                                                     
000064500000100000137009720200311000000000100000RMB20200908-00000000300000RMBaaaaPOSbbbb                                                                     cccccccccccccccccccccc                                                                                                                                                                                                 20201005123456C                                                                                                                                                                                                                     
000064500000100000138009720200311000000000100000RMB20200908-00000000300000RMBaaaaPOSbbbb                                                                     cccccccccccccccccccccc                                                                                                                                                                                                 20201005123456D                                                                                                                                                                                                                     
000064500000100000139009720200311000000000100000RMB20200908-00000000300000RMBaaaaPOSbbbb                                                                     cccccccccccccccccccccc                                                                                                                                                                                                 20201005123456C                                                                                                                                                                                                                     
000064500000100000140009720200311000000000100000RMB20200908-00000000300000RMBaaaaPOSbbbb                                                                     cccccccccccccccccccccc                                                                                                                                                                                                 20201005123456C                                                                                                                                                                                                                     
000064500000100000141009720200311000000000100000RMB20200908-00000000300000RMBaaaaPOSbbbb                                                                     cccccccccccccccccccccc                                                                                                                                                                                                 20201005123456D                                                                                                                                                                                                                     
000064500000100000142009720200311000000000100000RMB20200908-00000000300000RMBaaaaPOSbbbb                                                                     cccccccccccccccccccccc                                                                                                                                                                                                 20201005123456C                                                                                                                                                                                                                     
000064500000100000143009720200311000000000100000RMB20200908-00000000300000RMBaaaaPOSbbbb                                                                     cccccccccccccccccccccc                                                                                                                                                                                                 20201005123456D                                                                                                                                                                                                                     
000064500000100000144009720200311000000000100000RMB20200908-00000000300000RMBaaaaPOSbbbb                                                                     cccccccccccccccccccccc                                                                                                                                                                                                 20201005123456C                                                                                                                                                                                                                     
000064500000100000145009720200311000000000100000RMB20200908-00000000300000RMBaaaaPOSbbbb                                                                     cccccccccccccccccccccc                                                                                                                                                                                                 20201005123456C                                                                                                                                                                                                                     
000064500000100000146009720200311000000000100000RMB20200908-00000000300000RMBaaaaPOSbbbb                                                                     cccccccccccccccccccccc                                                                                                                                                                                                 20201005123456D                                                                                                                                                                                                                     
000064500000100000147009720200311000000000100000RMB20200908-00000000300000RMBaaaaPOSbbbb                                                                     cccccccccccccccccccccc                                                                                                                                                                                                 20201005123456C                                                                                                                                                                                                                     
000064500000100000148009720200311000000000100000RMB20200908-00000000300000RMBaaaaPOSbbbb                                                                     cccccccccccccccccccccc                                                                                                                                                                                                 20201005123456D                                                                                                                                                                                                                     
000064500000100000149009720200311000000000100000RMB20200908-00000000300000RMBaaaaPOSbbbb                                                                     cccccccccccccccccccccc                                                                                                                                                                                                 20201005123456C                                                                                                                                                                                                                     
000064500000100000150009720200311000000000100000RMB20200908-00000000300000RMBaaaaPOSbbbb                                                                     cccccccccccccccccccccc                                                                                                                                                                                                 20201005123456C                                                                                                                                                                                                                     
000064500000100000151009720200311000000000100000RMB20200908-00000000300000RMBaaaaPOSbbbb                                                                     cccccccccccccccccccccc                                                                                                                                                                                                 20201005123456D                                                                                                                                                                                                                     
000064500000100000152009720200311000000000100000RMB20200908-00000000300000RMBaaaaPOSbbbb                                                                     cccccccccccccccccccccc                                                                                                                                                                                                 20201005123456C                                                                                                                                                                                                                     
000064500000100000153009720200311000000000100000RMB20200908-00000000300000RMBaaaaPOSbbbb                                                                     cccccccccccccccccccccc                                                                                                                                                                                                 20201005123456D                                                                                                                                                                                                                     
000064500000100000154009720200311000000000100000RMB20200908-00000000300000RMBaaaaPOSbbbb                                                                     cccccccccccccccccccccc                                                                                                                                                                                                 20201005123456C                                                                                                                                                                                                                     
000064500000100000155009720200311000000000100000RMB20200908-00000000300000RMBaaaaPOSbbbb                                                                     cccccccccccccccccccccc                                                                                                                                                                                                 20201005123456C                                                                                                                                                                                                                     
000064500000100000156009720200311000000000100000RMB20200908-00000000300000RMBaaaaPOSbbbb                                                                     cccccccccccccccccccccc                                                                                                                                                                                                 20201005123456D                                                                                                                                                                                                                     
000064500000100000157009720200311000000000100000RMB20200908-00000000300000RMBaaaaPOSbbbb                                                                     cccccccccccccccccccccc                                                                                                                                                                                                 20201005123456C                                                                                                                                                                                                                     
000064500000100000158009720200311000000000100000RMB20200908-00000000300000RMBaaaaPOSbbbb                                                                     cccccccccccccccccccccc                                                                                                                                                                                                 20201005123456D                                                                                                                                                                                                                     
000064500000100000159009720200311000000000100000RMB20200908-00000000300000RMBaaaaPOSbbbb                                                                     cccccccccccccccccccccc                                                                                                                                                                                                 20201005123456C                                                                                                                                                                                                                     
000064500000100000160009720200311000000000100000RMB20200908-00000000300000RMBaaaaPOSbbbb                                                                     cccccccccccccccccccccc                                                                                                                                                                                                 20201005123456C                                                                                                                                                                                                                     
000064500000100000161009720200311000000000100000RMB20200908-00000000300000RMBaaaaPOSbbbb                                                                     cccccccccccccccccccccc                                                                                                                                                                                                 20201005123456D                                                                                                                                                                                                                     
000064500000100000162009720200311000000000100000RMB20200908-00000000300000RMBaaaaPOSbbbb                                                                     cccccccccccccccccccccc                                                                                                                                                                                                 20201005123456C                                                                                                                                                                                                                     
000064500000100000163009720200311000000000100000RMB20200908-00000000300000RMBaaaaPOSbbbb                                                                     cccccccccccccccccccccc                                                                                                                                                                                                 20201005123456D                                                                                                                                                                                                                     
000064500000100000164009720200311000000000100000RMB20200908-00000000300000RMBaaaaPOSbbbb                                                                     cccccccccccccccccccccc                                                                                                                                                                                                 20201005123456C                                                                                                                                                                                                                     
000064500000100000165009720200311000000000100000RMB20200908-00000000300000RMBaaaaPOSbbbb                                                                     cccccccccccccccccccccc                                                                                                                                                                                                 20201005123456C                                                                                                                                                                                                                     
000064500000100000166009720200311000000000100000RMB20200908-00000000300000RMBaaaaPOSbbbb                                                                     cccccccccccccccccccccc                                                                                                                                                                                                 20201005123456D                                                                                                                                                                                                                     
