00006450000010000000120201005abcabc                                                                          ME      aaaaaaaaaaaa                                                                                                                                                                                            bbbbbb                                  cccccc                                  dddddd                                  1566258********0097   20201025RMB00000000100000000000000000                00050     -00000000000046000000000000000000000000200000000000000200000000000000000000000000000000000000000000000000000000000000000000000000200000-0000000000004600000000002000000000000000000000000000200000000000000000000000000000000000000000118768107380         m222@mail.aaa.com                                                               120200906H
00006450000010000000220201005abcabc                                                                          ME      aaaaaaaaaaaa                                                                                                                                                                                            bbbbbb                                  cccccc                                  dddddd                                  1566258********0097   20201025RMB00000000100000000000000000                00050     -00000000000046000000000000000000000000200000000000000200000000000000000000000000000000000000000000000000000000000000000000000000200000-0000000000004600000000002000000000000000000000000000200000000000000000000000000000000000000000118768107380         m333@mail.aaa.com                                                               120200906H                                                                                                                                                                                                       
00006450000010000000320201005abcabc                                                                          ME      aaaaaaaaaaaa                                                                                                                                                                                            bbbbbb                                  cccccc                                  dddddd                                  1566258********0097   20201025RMB00000000100000000000000000                00050     -00000000000046000000000000000000000000200000000000000200000000000000000000000000000000000000000000000000000000000000000000000000200000-0000000000004600000000002000000000000000000000000000200000000000000000000000000000000000000000118768107380         m444@mail.aaa.com                                                               120200906H                                                                                                                                                                                                       
00006450000010000000420201005abcabc                                                                          ME      aaaaaaaaaaaa                                                                                                                                                                                            bbbbbb                                  cccccc                                  dddddd                                  1566258********0097   20201025RMB00000000100000000000000000                00050     -00000000000046000000000000000000000000200000000000000200000000000000000000000000000000000000000000000000000000000000000000000000200000-0000000000004600000000002000000000000000000000000000200000000000000000000000000000000000000000118768107380         m555@mail.aaa.com                                                               120200906H                                                                                                                                                                                                       
00006450000010000000520201005abcabc                                                                          ME      aaaaaaaaaaaa                                                                                                                                                                                            bbbbbb                                  cccccc                                  dddddd                                  1566258********0097   20201025RMB00000000100000000000000000                00050     -00000000000046000000000000000000000000200000000000000200000000000000000000000000000000000000000000000000000000000000000000000000200000-0000000000004600000000002000000000000000000000000000200000000000000000000000000000000000000000118768107380         m111@mail.aaa.com                                                               120200906H                                                                                                                                                                                                       
00006450000010000000620201005abcabc                                                                          ME      aaaaaaaaaaaa                                                                                                                                                                                            bbbbbb                                  cccccc                                  dddddd                                  1566258********0097   20201025RMB00000000100000000000000000                00050     -00000000000046000000000000000000000000200000000000000200000000000000000000000000000000000000000000000000000000000000000000000000200000-0000000000004600000000002000000000000000000000000000200000000000000000000000000000000000000000118768107380         m222@mail.aaa.com                                                               120200906H                                                                                                                                                                                                       
00006450000010000000720201005abcabc                                                                          ME      aaaaaaaaaaaa                                                                                                                                                                                            bbbbbb                                  cccccc                                  dddddd                                  1566258********0097   20201025RMB00000000100000000000000000                00050     -00000000000046000000000000000000000000200000000000000200000000000000000000000000000000000000000000000000000000000000000000000000200000-0000000000004600000000002000000000000000000000000000200000000000000000000000000000000000000000118768107380         m333@mail.aaa.com                                                               120200906H                                                                                                                                                                                                       
00006450000010000000820201005abcabc                                                                          ME      aaaaaaaaaaaa                                                                                                                                                                                            bbbbbb                                  cccccc                                  dddddd                                  1566258********0097   20201025RMB00000000100000000000000000                00050     -00000000000046000000000000000000000000200000000000000200000000000000000000000000000000000000000000000000000000000000000000000000200000-0000000000004600000000002000000000000000000000000000200000000000000000000000000000000000000000118768107380         m444@mail.aaa.com                                                               120200906H                                                                                                                                                                                                       
00006450000010000000920201005abcabc                                                                          ME      aaaaaaaaaaaa                                                                                                                                                                                            bbbbbb                                  cccccc                                  dddddd                                  1566258********0097   20201025RMB00000000100000000000000000                00050     -00000000000046000000000000000000000000200000000000000200000000000000000000000000000000000000000000000000000000000000000000000000200000-0000000000004600000000002000000000000000000000000000200000000000000000000000000000000000000000118768107380         m555@mail.aaa.com                                                               120200906H                                                                                                                                                                                                       
00006450000010000001020201005abcabc                                                                          ME      aaaaaaaaaaaa                                                                                                                                                                                            bbbbbb                                  cccccc                                  dddddd                                  1566258********0097   20201025RMB00000000100000000000000000                00050     -00000000000046000000000000000000000000200000000000000200000000000000000000000000000000000000000000000000000000000000000000000000200000-0000000000004600000000002000000000000000000000000000200000000000000000000000000000000000000000118768107380         m111@mail.aaa.com                                                               120200906H                                                                                                                                                                                                       
00006450000010000001120201005abcabc                                                                          ME      aaaaaaaaaaaa                                                                                                                                                                                            bbbbbb                                  cccccc                                  dddddd                                  1566258********0097   20201025RMB00000000100000000000000000                00050     -00000000000046000000000000000000000000200000000000000200000000000000000000000000000000000000000000000000000000000000000000000000200000-0000000000004600000000002000000000000000000000000000200000000000000000000000000000000000000000118768107380         m222@mail.aaa.com                                                               120200906H                                                                                                                                                                                                       
00006450000010000001220201005abcabc                                                                          ME      aaaaaaaaaaaa                                                                                                                                                                                            bbbbbb                                  cccccc                                  dddddd                                  1566258********0097   20201025RMB00000000100000000000000000                00050     -00000000000046000000000000000000000000200000000000000200000000000000000000000000000000000000000000000000000000000000000000000000200000-0000000000004600000000002000000000000000000000000000200000000000000000000000000000000000000000118768107380         m333@mail.aaa.com                                                               120200906H                                                                                                                                                                                                       
00006450000010000001320201005abcabc                                                                          ME      aaaaaaaaaaaa                                                                                                                                                                                            bbbbbb                                  cccccc                                  dddddd                                  1566258********0097   20201025RMB00000000100000000000000000                00050     -00000000000046000000000000000000000000200000000000000200000000000000000000000000000000000000000000000000000000000000000000000000200000-0000000000004600000000002000000000000000000000000000200000000000000000000000000000000000000000118768107380         m444@mail.aaa.com                                                               120200906H                                                                                                                                                                                                       
00006450000010000001420201005abcabc                                                                          ME      aaaaaaaaaaaa                                                                                                                                                                                            bbbbbb                                  cccccc                                  dddddd                                  1566258********0097   20201025RMB00000000100000000000000000                00050     -00000000000046000000000000000000000000200000000000000200000000000000000000000000000000000000000000000000000000000000000000000000200000-0000000000004600000000002000000000000000000000000000200000000000000000000000000000000000000000118768107380         m555@mail.aaa.com                                                               120200906H                                                                                                                                                                                                       
00006450000010000001520201005abcabc                                                                          ME      aaaaaaaaaaaa                                                                                                                                                                                            bbbbbb                                  cccccc                                  dddddd                                  1566258********0097   20201025RMB00000000100000000000000000                00050     -00000000000046000000000000000000000000200000000000000200000000000000000000000000000000000000000000000000000000000000000000000000200000-0000000000004600000000002000000000000000000000000000200000000000000000000000000000000000000000118768107380         m111@mail.aaa.com                                                               120200906H                                                                                                                                                                                                       
00006450000010000001620201005abcabc                                                                          ME      aaaaaaaaaaaa                                                                                                                                                                                            bbbbbb                                  cccccc                                  dddddd                                  1566258********0097   20201025RMB00000000100000000000000000                00050     -00000000000046000000000000000000000000200000000000000200000000000000000000000000000000000000000000000000000000000000000000000000200000-0000000000004600000000002000000000000000000000000000200000000000000000000000000000000000000000118768107380         m222@mail.aaa.com                                                               120200906H                                                                                                                                                                                                       
00006450000010000001720201005abcabc                                                                          ME      aaaaaaaaaaaa                                                                                                                                                                                            bbbbbb                                  cccccc                                  dddddd                                  1566258********0097   20201025RMB00000000100000000000000000                00050     -00000000000046000000000000000000000000200000000000000200000000000000000000000000000000000000000000000000000000000000000000000000200000-0000000000004600000000002000000000000000000000000000200000000000000000000000000000000000000000118768107380         m333@mail.aaa.com                                                               120200906H                                                                                                                                                                                                       
00006450000010000001820201005abcabc                                                                          ME      aaaaaaaaaaaa                                                                                                                                                                                            bbbbbb                                  cccccc                                  dddddd                                  1566258********0097   20201025RMB00000000100000000000000000                00050     -00000000000046000000000000000000000000200000000000000200000000000000000000000000000000000000000000000000000000000000000000000000200000-0000000000004600000000002000000000000000000000000000200000000000000000000000000000000000000000118768107380         m444@mail.aaa.com                                                               120200906H                                                                                                                                                                                                       
00006450000010000001920201005abcabc                                                                          ME      aaaaaaaaaaaa                                                                                                                                                                                            bbbbbb                                  cccccc                                  dddddd                                  1566258********0097   20201025RMB00000000100000000000000000                00050     -00000000000046000000000000000000000000200000000000000200000000000000000000000000000000000000000000000000000000000000000000000000200000-0000000000004600000000002000000000000000000000000000200000000000000000000000000000000000000000118768107380         m555@mail.aaa.com                                                               120200906H                                                                                                                                                                                                       
00006450000010000002020201005abcabc                                                                          ME      aaaaaaaaaaaa                                                                                                                                                                                            bbbbbb                                  cccccc                                  dddddd                                  1566258********0097   20201025RMB00000000100000000000000000                00050     -00000000000046000000000000000000000000200000000000000200000000000000000000000000000000000000000000000000000000000000000000000000200000-0000000000004600000000002000000000000000000000000000200000000000000000000000000000000000000000118768107380         m111@mail.aaa.com                                                               120200906H                                                                                                                                                                                                       
00006450000010000002120201005abcabc                                                                          ME      aaaaaaaaaaaa                                                                                                                                                                                            bbbbbb                                  cccccc                                  dddddd                                  1566258********0097   20201025RMB00000000100000000000000000                00050     -00000000000046000000000000000000000000200000000000000200000000000000000000000000000000000000000000000000000000000000000000000000200000-0000000000004600000000002000000000000000000000000000200000000000000000000000000000000000000000118768107380         m222@mail.aaa.com                                                               120200906H                                                                                                                                                                                                       
00006450000010000002220201005abcabc                                                                          ME      aaaaaaaaaaaa                                                                                                                                                                                            bbbbbb                                  cccccc                                  dddddd                                  1566258********0097   20201025RMB00000000100000000000000000                00050     -00000000000046000000000000000000000000200000000000000200000000000000000000000000000000000000000000000000000000000000000000000000200000-0000000000004600000000002000000000000000000000000000200000000000000000000000000000000000000000118768107380         m333@mail.aaa.com                                                               120200906H                                                                                                                                                                                                       
00006450000010000002320201005abcabc                                                                          ME      aaaaaaaaaaaa                                                                                                                                                                                            bbbbbb                                  cccccc                                  dddddd                                  1566258********0097   20201025RMB00000000100000000000000000                00050     -00000000000046000000000000000000000000200000000000000200000000000000000000000000000000000000000000000000000000000000000000000000200000-0000000000004600000000002000000000000000000000000000200000000000000000000000000000000000000000118768107380         m444@mail.aaa.com                                                               120200906H                                                                                                                                                                                                       
00006450000010000002420201005abcabc                                                                          ME      aaaaaaaaaaaa                                                                                                                                                                                            bbbbbb                                  cccccc                                  dddddd                                  1566258********0097   20201025RMB00000000100000000000000000                00050     -00000000000046000000000000000000000000200000000000000200000000000000000000000000000000000000000000000000000000000000000000000000200000-0000000000004600000000002000000000000000000000000000200000000000000000000000000000000000000000118768107380         m555@mail.aaa.com                                                               120200906H                                                                                                                                                                                                       
00006450000010000002520201005abcabc                                                                          ME      aaaaaaaaaaaa                                                                                                                                                                                            bbbbbb                                  cccccc                                  dddddd                                  1566258********0097   20201025RMB00000000100000000000000000                00050     -00000000000046000000000000000000000000200000000000000200000000000000000000000000000000000000000000000000000000000000000000000000200000-0000000000004600000000002000000000000000000000000000200000000000000000000000000000000000000000118768107380         m111@mail.aaa.com                                                               120200906H                                                                                                                                                                                                       
00006450000010000002620201005abcabc                                                                          ME      aaaaaaaaaaaa                                                                                                                                                                                            bbbbbb                                  cccccc                                  dddddd                                  1566258********0097   20201025RMB00000000100000000000000000                00050     -00000000000046000000000000000000000000200000000000000200000000000000000000000000000000000000000000000000000000000000000000000000200000-0000000000004600000000002000000000000000000000000000200000000000000000000000000000000000000000118768107380         m222@mail.aaa.com                                                               120200906H                                                                                                                                                                                                       
00006450000010000002720201005abcabc                                                                          ME      aaaaaaaaaaaa                                                                                                                                                                                            bbbbbb                                  cccccc                                  dddddd                                  1566258********0097   20201025RMB00000000100000000000000000                00050     -00000000000046000000000000000000000000200000000000000200000000000000000000000000000000000000000000000000000000000000000000000000200000-0000000000004600000000002000000000000000000000000000200000000000000000000000000000000000000000118768107380         m333@mail.aaa.com                                                               120200906H                                                                                                                                                                                                       
00006450000010000002820201005abcabc                                                                          ME      aaaaaaaaaaaa                                                                                                                                                                                            bbbbbb                                  cccccc                                  dddddd                                  1566258********0097   20201025RMB00000000100000000000000000                00050     -00000000000046000000000000000000000000200000000000000200000000000000000000000000000000000000000000000000000000000000000000000000200000-0000000000004600000000002000000000000000000000000000200000000000000000000000000000000000000000118768107380         m444@mail.aaa.com                                                               120200906H                                                                                                                                                                                                       
00006450000010000002920201005abcabc                                                                          ME      aaaaaaaaaaaa                                                                                                                                                                                            bbbbbb                                  cccccc                                  dddddd                                  1566258********0097   20201025RMB00000000100000000000000000                00050     -00000000000046000000000000000000000000200000000000000200000000000000000000000000000000000000000000000000000000000000000000000000200000-0000000000004600000000002000000000000000000000000000200000000000000000000000000000000000000000118768107380         m555@mail.aaa.com                                                               120200906H                                                                                                                                                                                                       
00006450000010000003020201005abcabc                                                                          ME      aaaaaaaaaaaa                                                                                                                                                                                            bbbbbb                                  cccccc                                  dddddd                                  1566258********0097   20201025RMB00000000100000000000000000                00050     -00000000000046000000000000000000000000200000000000000200000000000000000000000000000000000000000000000000000000000000000000000000200000-0000000000004600000000002000000000000000000000000000200000000000000000000000000000000000000000118768107380         m111@mail.aaa.com                                                               120200906H                                                                                                                                                                                                       
00006450000010000003120201005abcabc                                                                          ME      aaaaaaaaaaaa                                                                                                                                                                                            bbbbbb                                  cccccc                                  dddddd                                  1566258********0097   20201025RMB00000000100000000000000000                00050     -00000000000046000000000000000000000000200000000000000200000000000000000000000000000000000000000000000000000000000000000000000000200000-0000000000004600000000002000000000000000000000000000200000000000000000000000000000000000000000118768107380         m222@mail.aaa.com                                                               120200906H                                                                                                                                                                                                       
00006450000010000003220201005abcabc                                                                          ME      aaaaaaaaaaaa                                                                                                                                                                                            bbbbbb                                  cccccc                                  dddddd                                  1566258********0097   20201025RMB00000000100000000000000000                00050     -00000000000046000000000000000000000000200000000000000200000000000000000000000000000000000000000000000000000000000000000000000000200000-0000000000004600000000002000000000000000000000000000200000000000000000000000000000000000000000118768107380         m333@mail.aaa.com                                                               120200906H                                                                                                                                                                                                       
00006450000010000003320201005abcabc                                                                          ME      aaaaaaaaaaaa                                                                                                                                                                                            bbbbbb                                  cccccc                                  dddddd                                  1566258********0097   20201025RMB00000000100000000000000000                00050     -00000000000046000000000000000000000000200000000000000200000000000000000000000000000000000000000000000000000000000000000000000000200000-0000000000004600000000002000000000000000000000000000200000000000000000000000000000000000000000118768107380         m444@mail.aaa.com                                                               120200906H                                                                                                                                                                                                       
00006450000010000003420201005abcabc                                                                          ME      aaaaaaaaaaaa                                                                                                                                                                                            bbbbbb                                  cccccc                                  dddddd                                  1566258********0097   20201025RMB00000000100000000000000000                00050     -00000000000046000000000000000000000000200000000000000200000000000000000000000000000000000000000000000000000000000000000000000000200000-0000000000004600000000002000000000000000000000000000200000000000000000000000000000000000000000118768107380         m555@mail.aaa.com                                                               120200906H                                                                                                                                                                                                       
00006450000010000003520201005abcabc                                                                          ME      aaaaaaaaaaaa                                                                                                                                                                                            bbbbbb                                  cccccc                                  dddddd                                  1566258********0097   20201025RMB00000000100000000000000000                00050     -00000000000046000000000000000000000000200000000000000200000000000000000000000000000000000000000000000000000000000000000000000000200000-0000000000004600000000002000000000000000000000000000200000000000000000000000000000000000000000118768107380         m111@mail.aaa.com                                                               120200906H                                                                                                                                                                                                       
00006450000010000003620201005abcabc                                                                          ME      aaaaaaaaaaaa                                                                                                                                                                                            bbbbbb                                  cccccc                                  dddddd                                  1566258********0097   20201025RMB00000000100000000000000000                00050     -00000000000046000000000000000000000000200000000000000200000000000000000000000000000000000000000000000000000000000000000000000000200000-0000000000004600000000002000000000000000000000000000200000000000000000000000000000000000000000118768107380         m222@mail.aaa.com                                                               120200906H                                                                                                                                                                                                       
00006450000010000003720201005abcabc                                                                          ME      aaaaaaaaaaaa                                                                                                                                                                                            bbbbbb                                  cccccc                                  dddddd                                  1566258********0097   20201025RMB00000000100000000000000000                00050     -00000000000046000000000000000000000000200000000000000200000000000000000000000000000000000000000000000000000000000000000000000000200000-0000000000004600000000002000000000000000000000000000200000000000000000000000000000000000000000118768107380         m333@mail.aaa.com                                                               120200906H                                                                                                                                                                                                       
00006450000010000003820201005abcabc                                                                          ME      aaaaaaaaaaaa                                                                                                                                                                                            bbbbbb                                  cccccc                                  dddddd                                  1566258********0097   20201025RMB00000000100000000000000000                00050     -00000000000046000000000000000000000000200000000000000200000000000000000000000000000000000000000000000000000000000000000000000000200000-0000000000004600000000002000000000000000000000000000200000000000000000000000000000000000000000118768107380         m444@mail.aaa.com                                                               120200906H                                                                                                                                                                                                       
00006450000010000003920201005abcabc                                                                          ME      aaaaaaaaaaaa                                                                                                                                                                                            bbbbbb                                  cccccc                                  dddddd                                  1566258********0097   20201025RMB00000000100000000000000000                00050     -00000000000046000000000000000000000000200000000000000200000000000000000000000000000000000000000000000000000000000000000000000000200000-0000000000004600000000002000000000000000000000000000200000000000000000000000000000000000000000118768107380         m555@mail.aaa.com                                                               120200906H                                                                                                                                                                                                       
00006450000010000004020201005abcabc                                                                          ME      aaaaaaaaaaaa                                                                                                                                                                                            bbbbbb                                  cccccc                                  dddddd                                  1566258********0097   20201025RMB00000000100000000000000000                00050     -00000000000046000000000000000000000000200000000000000200000000000000000000000000000000000000000000000000000000000000000000000000200000-0000000000004600000000002000000000000000000000000000200000000000000000000000000000000000000000118768107380         m111@mail.aaa.com                                                               120200906H                                                                                                                                                                                                       
00006450000010000004120201005abcabc                                                                          ME      aaaaaaaaaaaa                                                                                                                                                                                            bbbbbb                                  cccccc                                  dddddd                                  1566258********0097   20201025RMB00000000100000000000000000                00050     -00000000000046000000000000000000000000200000000000000200000000000000000000000000000000000000000000000000000000000000000000000000200000-0000000000004600000000002000000000000000000000000000200000000000000000000000000000000000000000118768107380         m222@mail.aaa.com                                                               120200906H                                                                                                                                                                                                       
00006450000010000004220201005abcabc                                                                          ME      aaaaaaaaaaaa                                                                                                                                                                                            bbbbbb                                  cccccc                                  dddddd                                  1566258********0097   20201025RMB00000000100000000000000000                00050     -00000000000046000000000000000000000000200000000000000200000000000000000000000000000000000000000000000000000000000000000000000000200000-0000000000004600000000002000000000000000000000000000200000000000000000000000000000000000000000118768107380         m333@mail.aaa.com                                                               120200906H                                                                                                                                                                                                       
00006450000010000004320201005abcabc                                                                          ME      aaaaaaaaaaaa                                                                                                                                                                                            bbbbbb                                  cccccc                                  dddddd                                  1566258********0097   20201025RMB00000000100000000000000000                00050     -00000000000046000000000000000000000000200000000000000200000000000000000000000000000000000000000000000000000000000000000000000000200000-0000000000004600000000002000000000000000000000000000200000000000000000000000000000000000000000118768107380         m444@mail.aaa.com                                                               120200906H                                                                                                                                                                                                       
00006450000010000004420201005abcabc                                                                          ME      aaaaaaaaaaaa                                                                                                                                                                                            bbbbbb                                  cccccc                                  dddddd                                  1566258********0097   20201025RMB00000000100000000000000000                00050     -00000000000046000000000000000000000000200000000000000200000000000000000000000000000000000000000000000000000000000000000000000000200000-0000000000004600000000002000000000000000000000000000200000000000000000000000000000000000000000118768107380         m555@mail.aaa.com                                                               120200906H                                                                                                                                                                                                       
00006450000010000004520201005abcabc                                                                          ME      aaaaaaaaaaaa                                                                                                                                                                                            bbbbbb                                  cccccc                                  dddddd                                  1566258********0097   20201025RMB00000000100000000000000000                00050     -00000000000046000000000000000000000000200000000000000200000000000000000000000000000000000000000000000000000000000000000000000000200000-0000000000004600000000002000000000000000000000000000200000000000000000000000000000000000000000118768107380         m111@mail.aaa.com                                                               120200906H                                                                                                                                                                                                       
00006450000010000004620201005abcabc                                                                          ME      aaaaaaaaaaaa                                                                                                                                                                                            bbbbbb                                  cccccc                                  dddddd                                  1566258********0097   20201025RMB00000000100000000000000000                00050     -00000000000046000000000000000000000000200000000000000200000000000000000000000000000000000000000000000000000000000000000000000000200000-0000000000004600000000002000000000000000000000000000200000000000000000000000000000000000000000118768107380         m222@mail.aaa.com                                                               120200906H                                                                                                                                                                                                       
00006450000010000004720201005abcabc                                                                          ME      aaaaaaaaaaaa                                                                                                                                                                                            bbbbbb                                  cccccc                                  dddddd                                  1566258********0097   20201025RMB00000000100000000000000000                00050     -00000000000046000000000000000000000000200000000000000200000000000000000000000000000000000000000000000000000000000000000000000000200000-0000000000004600000000002000000000000000000000000000200000000000000000000000000000000000000000118768107380         m333@mail.aaa.com                                                               120200906H                                                                                                                                                                                                       
00006450000010000004820201005abcabc                                                                          ME      aaaaaaaaaaaa                                                                                                                                                                                            bbbbbb                                  cccccc                                  dddddd                                  1566258********0097   20201025RMB00000000100000000000000000                00050     -00000000000046000000000000000000000000200000000000000200000000000000000000000000000000000000000000000000000000000000000000000000200000-0000000000004600000000002000000000000000000000000000200000000000000000000000000000000000000000118768107380         m444@mail.aaa.com                                                               120200906H                                                                                                                                                                                                       
00006450000010000004920201005abcabc                                                                          ME      aaaaaaaaaaaa                                                                                                                                                                                            bbbbbb                                  cccccc                                  dddddd                                  1566258********0097   20201025RMB00000000100000000000000000                00050     -00000000000046000000000000000000000000200000000000000200000000000000000000000000000000000000000000000000000000000000000000000000200000-0000000000004600000000002000000000000000000000000000200000000000000000000000000000000000000000118768107380         m555@mail.aaa.com                                                               120200906H                                                                                                                                                                                                       
00006450000010000005020201005abcabc                                                                          ME      aaaaaaaaaaaa                                                                                                                                                                                            bbbbbb                                  cccccc                                  dddddd                                  1566258********0097   20201025RMB00000000100000000000000000                00050     -00000000000046000000000000000000000000200000000000000200000000000000000000000000000000000000000000000000000000000000000000000000200000-0000000000004600000000002000000000000000000000000000200000000000000000000000000000000000000000118768107380         m111@mail.aaa.com                                                               120200906H                                                                                                                                                                                                       
00006450000010000005120201005abcabc                                                                          ME      aaaaaaaaaaaa                                                                                                                                                                                            bbbbbb                                  cccccc                                  dddddd                                  1566258********0097   20201025RMB00000000100000000000000000                00050     -00000000000046000000000000000000000000200000000000000200000000000000000000000000000000000000000000000000000000000000000000000000200000-0000000000004600000000002000000000000000000000000000200000000000000000000000000000000000000000118768107380         m222@mail.aaa.com                                                               120200906H                                                                                                                                                                                                       
00006450000010000005220201005abcabc                                                                          ME      aaaaaaaaaaaa                                                                                                                                                                                            bbbbbb                                  cccccc                                  dddddd                                  1566258********0097   20201025RMB00000000100000000000000000                00050     -00000000000046000000000000000000000000200000000000000200000000000000000000000000000000000000000000000000000000000000000000000000200000-0000000000004600000000002000000000000000000000000000200000000000000000000000000000000000000000118768107380         m333@mail.aaa.com                                                               120200906H                                                                                                                                                                                                       
00006450000010000005320201005abcabc                                                                          ME      aaaaaaaaaaaa                                                                                                                                                                                            bbbbbb                                  cccccc                                  dddddd                                  1566258********0097   20201025RMB00000000100000000000000000                00050     -00000000000046000000000000000000000000200000000000000200000000000000000000000000000000000000000000000000000000000000000000000000200000-0000000000004600000000002000000000000000000000000000200000000000000000000000000000000000000000118768107380         m444@mail.aaa.com                                                               120200906H                                                                                                                                                                                                       
00006450000010000005420201005abcabc                                                                          ME      aaaaaaaaaaaa                                                                                                                                                                                            bbbbbb                                  cccccc                                  dddddd                                  1566258********0097   20201025RMB00000000100000000000000000                00050     -00000000000046000000000000000000000000200000000000000200000000000000000000000000000000000000000000000000000000000000000000000000200000-0000000000004600000000002000000000000000000000000000200000000000000000000000000000000000000000118768107380         m555@mail.aaa.com                                                               120200906H                                                                                                                                                                                                       
00006450000010000005520201005abcabc                                                                          ME      aaaaaaaaaaaa                                                                                                                                                                                            bbbbbb                                  cccccc                                  dddddd                                  1566258********0097   20201025RMB00000000100000000000000000                00050     -00000000000046000000000000000000000000200000000000000200000000000000000000000000000000000000000000000000000000000000000000000000200000-0000000000004600000000002000000000000000000000000000200000000000000000000000000000000000000000118768107380         m111@mail.aaa.com                                                               120200906H                                                                                                                                                                                                       
00006450000010000005620201005abcabc                                                                          ME      aaaaaaaaaaaa                                                                                                                                                                                            bbbbbb                                  cccccc                                  dddddd                                  1566258********0097   20201025RMB00000000100000000000000000                00050     -00000000000046000000000000000000000000200000000000000200000000000000000000000000000000000000000000000000000000000000000000000000200000-0000000000004600000000002000000000000000000000000000200000000000000000000000000000000000000000118768107380         m222@mail.aaa.com                                                               120200906H                                                                                                                                                                                                       
00006450000010000005720201005abcabc                                                                          ME      aaaaaaaaaaaa                                                                                                                                                                                            bbbbbb                                  cccccc                                  dddddd                                  1566258********0097   20201025RMB00000000100000000000000000                00050     -00000000000046000000000000000000000000200000000000000200000000000000000000000000000000000000000000000000000000000000000000000000200000-0000000000004600000000002000000000000000000000000000200000000000000000000000000000000000000000118768107380         m333@mail.aaa.com                                                               120200906H                                                                                                                                                                                                       
00006450000010000005820201005abcabc                                                                          ME      aaaaaaaaaaaa                                                                                                                                                                                            bbbbbb                                  cccccc                                  dddddd                                  1566258********0097   20201025RMB00000000100000000000000000                00050     -00000000000046000000000000000000000000200000000000000200000000000000000000000000000000000000000000000000000000000000000000000000200000-0000000000004600000000002000000000000000000000000000200000000000000000000000000000000000000000118768107380         m444@mail.aaa.com                                                               120200906H                                                                                                                                                                                                       
00006450000010000005920201005abcabc                                                                          ME      aaaaaaaaaaaa                                                                                                                                                                                            bbbbbb                                  cccccc                                  dddddd                                  1566258********0097   20201025RMB00000000100000000000000000                00050     -00000000000046000000000000000000000000200000000000000200000000000000000000000000000000000000000000000000000000000000000000000000200000-0000000000004600000000002000000000000000000000000000200000000000000000000000000000000000000000118768107380         m555@mail.aaa.com                                                               120200906H                                                                                                                                                                                                       
00006450000010000006020201005abcabc                                                                          ME      aaaaaaaaaaaa                                                                                                                                                                                            bbbbbb                                  cccccc                                  dddddd                                  1566258********0097   20201025RMB00000000100000000000000000                00050     -00000000000046000000000000000000000000200000000000000200000000000000000000000000000000000000000000000000000000000000000000000000200000-0000000000004600000000002000000000000000000000000000200000000000000000000000000000000000000000118768107380         m111@mail.aaa.com                                                               120200906H                                                                                                                                                                                                       
00006450000010000006120201005abcabc                                                                          ME      aaaaaaaaaaaa                                                                                                                                                                                            bbbbbb                                  cccccc                                  dddddd                                  1566258********0097   20201025RMB00000000100000000000000000                00050     -00000000000046000000000000000000000000200000000000000200000000000000000000000000000000000000000000000000000000000000000000000000200000-0000000000004600000000002000000000000000000000000000200000000000000000000000000000000000000000118768107380         m222@mail.aaa.com                                                               120200906H                                                                                                                                                                                                       
00006450000010000006220201005abcabc                                                                          ME      aaaaaaaaaaaa                                                                                                                                                                                            bbbbbb                                  cccccc                                  dddddd                                  1566258********0097   20201025RMB00000000100000000000000000                00050     -00000000000046000000000000000000000000200000000000000200000000000000000000000000000000000000000000000000000000000000000000000000200000-0000000000004600000000002000000000000000000000000000200000000000000000000000000000000000000000118768107380         m333@mail.aaa.com                                                               120200906H                                                                                                                                                                                                       
00006450000010000006320201005abcabc                                                                          ME      aaaaaaaaaaaa                                                                                                                                                                                            bbbbbb                                  cccccc                                  dddddd                                  1566258********0097   20201025RMB00000000100000000000000000                00050     -00000000000046000000000000000000000000200000000000000200000000000000000000000000000000000000000000000000000000000000000000000000200000-0000000000004600000000002000000000000000000000000000200000000000000000000000000000000000000000118768107380         m444@mail.aaa.com                                                               120200906H                                                                                                                                                                                                       
00006450000010000006420201005abcabc                                                                          ME      aaaaaaaaaaaa                                                                                                                                                                                            bbbbbb                                  cccccc                                  dddddd                                  1566258********0097   20201025RMB00000000100000000000000000                00050     -00000000000046000000000000000000000000200000000000000200000000000000000000000000000000000000000000000000000000000000000000000000200000-0000000000004600000000002000000000000000000000000000200000000000000000000000000000000000000000118768107380         m555@mail.aaa.com                                                               120200906H                                                                                                                                                                                                       
00006450000010000006520201005abcabc                                                                          ME      aaaaaaaaaaaa                                                                                                                                                                                            bbbbbb                                  cccccc                                  dddddd                                  1566258********0097   20201025RMB00000000100000000000000000                00050     -00000000000046000000000000000000000000200000000000000200000000000000000000000000000000000000000000000000000000000000000000000000200000-0000000000004600000000002000000000000000000000000000200000000000000000000000000000000000000000118768107380         m111@mail.aaa.com                                                               120200906H                                                                                                                                                                                                       
00006450000010000006620201005abcabc                                                                          ME      aaaaaaaaaaaa                                                                                                                                                                                            bbbbbb                                  cccccc                                  dddddd                                  1566258********0097   20201025RMB00000000100000000000000000                00050     -00000000000046000000000000000000000000200000000000000200000000000000000000000000000000000000000000000000000000000000000000000000200000-0000000000004600000000002000000000000000000000000000200000000000000000000000000000000000000000118768107380         m222@mail.aaa.com                                                               120200906H                                                                                                                                                                                                       
00006450000010000006720201005abcabc                                                                          ME      aaaaaaaaaaaa                                                                                                                                                                                            bbbbbb                                  cccccc                                  dddddd                                  1566258********0097   20201025RMB00000000100000000000000000                00050     -00000000000046000000000000000000000000200000000000000200000000000000000000000000000000000000000000000000000000000000000000000000200000-0000000000004600000000002000000000000000000000000000200000000000000000000000000000000000000000118768107380         m333@mail.aaa.com                                                               120200906H                                                                                                                                                                                                       
00006450000010000006820201005abcabc                                                                          ME      aaaaaaaaaaaa                                                                                                                                                                                            bbbbbb                                  cccccc                                  dddddd                                  1566258********0097   20201025RMB00000000100000000000000000                00050     -00000000000046000000000000000000000000200000000000000200000000000000000000000000000000000000000000000000000000000000000000000000200000-0000000000004600000000002000000000000000000000000000200000000000000000000000000000000000000000118768107380         m444@mail.aaa.com                                                               120200906H                                                                                                                                                                                                       
00006450000010000006920201005abcabc                                                                          ME      aaaaaaaaaaaa                                                                                                                                                                                            bbbbbb                                  cccccc                                  dddddd                                  1566258********0097   20201025RMB00000000100000000000000000                00050     -00000000000046000000000000000000000000200000000000000200000000000000000000000000000000000000000000000000000000000000000000000000200000-0000000000004600000000002000000000000000000000000000200000000000000000000000000000000000000000118768107380         m555@mail.aaa.com                                                               120200906H                                                                                                                                                                                                       
00006450000010000007020201005abcabc                                                                          ME      aaaaaaaaaaaa                                                                                                                                                                                            bbbbbb                                  cccccc                                  dddddd                                  1566258********0097   20201025RMB00000000100000000000000000                00050     -00000000000046000000000000000000000000200000000000000200000000000000000000000000000000000000000000000000000000000000000000000000200000-0000000000004600000000002000000000000000000000000000200000000000000000000000000000000000000000118768107380         m111@mail.aaa.com                                                               120200906H                                                                                                                                                                                                       
00006450000010000007120201005abcabc                                                                          ME      aaaaaaaaaaaa                                                                                                                                                                                            bbbbbb                                  cccccc                                  dddddd                                  1566258********0097   20201025RMB00000000100000000000000000                00050     -00000000000046000000000000000000000000200000000000000200000000000000000000000000000000000000000000000000000000000000000000000000200000-0000000000004600000000002000000000000000000000000000200000000000000000000000000000000000000000118768107380         m222@mail.aaa.com                                                               120200906H                                                                                                                                                                                                       
00006450000010000007220201005abcabc                                                                          ME      aaaaaaaaaaaa                                                                                                                                                                                            bbbbbb                                  cccccc                                  dddddd                                  1566258********0097   20201025RMB00000000100000000000000000                00050     -00000000000046000000000000000000000000200000000000000200000000000000000000000000000000000000000000000000000000000000000000000000200000-0000000000004600000000002000000000000000000000000000200000000000000000000000000000000000000000118768107380         m333@mail.aaa.com                                                               120200906H                                                                                                                                                                                                       
00006450000010000007320201005abcabc                                                                          ME      aaaaaaaaaaaa                                                                                                                                                                                            bbbbbb                                  cccccc                                  dddddd                                  1566258********0097   20201025RMB00000000100000000000000000                00050     -00000000000046000000000000000000000000200000000000000200000000000000000000000000000000000000000000000000000000000000000000000000200000-0000000000004600000000002000000000000000000000000000200000000000000000000000000000000000000000118768107380         m444@mail.aaa.com                                                               120200906H                                                                                                                                                                                                       
00006450000010000007420201005abcabc                                                                          ME      aaaaaaaaaaaa                                                                                                                                                                                            bbbbbb                                  cccccc                                  dddddd                                  1566258********0097   20201025RMB00000000100000000000000000                00050     -00000000000046000000000000000000000000200000000000000200000000000000000000000000000000000000000000000000000000000000000000000000200000-0000000000004600000000002000000000000000000000000000200000000000000000000000000000000000000000118768107380         m555@mail.aaa.com                                                               120200906H                                                                                                                                                                                                       
00006450000010000007520201005abcabc                                                                          ME      aaaaaaaaaaaa                                                                                                                                                                                            bbbbbb                                  cccccc                                  dddddd                                  1566258********0097   20201025RMB00000000100000000000000000                00050     -00000000000046000000000000000000000000200000000000000200000000000000000000000000000000000000000000000000000000000000000000000000200000-0000000000004600000000002000000000000000000000000000200000000000000000000000000000000000000000118768107380         m111@mail.aaa.com                                                               120200906H                                                                                                                                                                                                       
00006450000010000007620201005abcabc                                                                          ME      aaaaaaaaaaaa                                                                                                                                                                                            bbbbbb                                  cccccc                                  dddddd                                  1566258********0097   20201025RMB00000000100000000000000000                00050     -00000000000046000000000000000000000000200000000000000200000000000000000000000000000000000000000000000000000000000000000000000000200000-0000000000004600000000002000000000000000000000000000200000000000000000000000000000000000000000118768107380         m222@mail.aaa.com                                                               120200906H                                                                                                                                                                                                       
00006450000010000007720201005abcabc                                                                          ME      aaaaaaaaaaaa                                                                                                                                                                                            bbbbbb                                  cccccc                                  dddddd                                  1566258********0097   20201025RMB00000000100000000000000000                00050     -00000000000046000000000000000000000000200000000000000200000000000000000000000000000000000000000000000000000000000000000000000000200000-0000000000004600000000002000000000000000000000000000200000000000000000000000000000000000000000118768107380         m333@mail.aaa.com                                                               120200906H                                                                                                                                                                                                       
00006450000010000007820201005abcabc                                                                          ME      aaaaaaaaaaaa                                                                                                                                                                                            bbbbbb                                  cccccc                                  dddddd                                  1566258********0097   20201025RMB00000000100000000000000000                00050     -00000000000046000000000000000000000000200000000000000200000000000000000000000000000000000000000000000000000000000000000000000000200000-0000000000004600000000002000000000000000000000000000200000000000000000000000000000000000000000118768107380         m444@mail.aaa.com                                                               120200906H                                                                                                                                                                                                       
00006450000010000007920201005abcabc                                                                          ME      aaaaaaaaaaaa                                                                                                                                                                                            bbbbbb                                  cccccc                                  dddddd                                  1566258********0097   20201025RMB00000000100000000000000000                00050     -00000000000046000000000000000000000000200000000000000200000000000000000000000000000000000000000000000000000000000000000000000000200000-0000000000004600000000002000000000000000000000000000200000000000000000000000000000000000000000118768107380         m555@mail.aaa.com                                                               120200906H                                                                                                                                                                                                       
00006450000010000008020201005abcabc                                                                          ME      aaaaaaaaaaaa                                                                                                                                                                                            bbbbbb                                  cccccc                                  dddddd                                  1566258********0097   20201025RMB00000000100000000000000000                00050     -00000000000046000000000000000000000000200000000000000200000000000000000000000000000000000000000000000000000000000000000000000000200000-0000000000004600000000002000000000000000000000000000200000000000000000000000000000000000000000118768107380         m111@mail.aaa.com                                                               120200906H                                                                                                                                                                                                       
00006450000010000008120201005abcabc                                                                          ME      aaaaaaaaaaaa                                                                                                                                                                                            bbbbbb                                  cccccc                                  dddddd                                  1566258********0097   20201025RMB00000000100000000000000000                00050     -00000000000046000000000000000000000000200000000000000200000000000000000000000000000000000000000000000000000000000000000000000000200000-0000000000004600000000002000000000000000000000000000200000000000000000000000000000000000000000118768107380         m222@mail.aaa.com                                                               120200906H                                                                                                                                                                                                       
00006450000010000008220201005abcabc                                                                          ME      aaaaaaaaaaaa                                                                                                                                                                                            bbbbbb                                  cccccc                                  dddddd                                  1566258********0097   20201025RMB00000000100000000000000000                00050     -00000000000046000000000000000000000000200000000000000200000000000000000000000000000000000000000000000000000000000000000000000000200000-0000000000004600000000002000000000000000000000000000200000000000000000000000000000000000000000118768107380         m333@mail.aaa.com                                                               120200906H                                                                                                                                                                                                       
00006450000010000008320201005abcabc                                                                          ME      aaaaaaaaaaaa                                                                                                                                                                                            bbbbbb                                  cccccc                                  dddddd                                  1566258********0097   20201025RMB00000000100000000000000000                00050     -00000000000046000000000000000000000000200000000000000200000000000000000000000000000000000000000000000000000000000000000000000000200000-0000000000004600000000002000000000000000000000000000200000000000000000000000000000000000000000118768107380         m444@mail.aaa.com                                                               120200906H                                                                                                                                                                                                       
00006450000010000008420201005abcabc                                                                          ME      aaaaaaaaaaaa                                                                                                                                                                                            bbbbbb                                  cccccc                                  dddddd                                  1566258********0097   20201025RMB00000000100000000000000000                00050     -00000000000046000000000000000000000000200000000000000200000000000000000000000000000000000000000000000000000000000000000000000000200000-0000000000004600000000002000000000000000000000000000200000000000000000000000000000000000000000118768107380         m555@mail.aaa.com                                                               120200906H                                                                                                                                                                                                       
00006450000010000008520201005abcabc                                                                          ME      aaaaaaaaaaaa                                                                                                                                                                                            bbbbbb                                  cccccc                                  dddddd                                  1566258********0097   20201025RMB00000000100000000000000000                00050     -00000000000046000000000000000000000000200000000000000200000000000000000000000000000000000000000000000000000000000000000000000000200000-0000000000004600000000002000000000000000000000000000200000000000000000000000000000000000000000118768107380         m111@mail.aaa.com                                                               120200906H                                                                                                                                                                                                       
00006450000010000008620201005abcabc                                                                          ME      aaaaaaaaaaaa                                                                                                                                                                                            bbbbbb                                  cccccc                                  dddddd                                  1566258********0097   20201025RMB00000000100000000000000000                00050     -00000000000046000000000000000000000000200000000000000200000000000000000000000000000000000000000000000000000000000000000000000000200000-0000000000004600000000002000000000000000000000000000200000000000000000000000000000000000000000118768107380         m222@mail.aaa.com                                                               120200906H                                                                                                                                                                                                       
00006450000010000008720201005abcabc                                                                          ME      aaaaaaaaaaaa                                                                                                                                                                                            bbbbbb                                  cccccc                                  dddddd                                  1566258********0097   20201025RMB00000000100000000000000000                00050     -00000000000046000000000000000000000000200000000000000200000000000000000000000000000000000000000000000000000000000000000000000000200000-0000000000004600000000002000000000000000000000000000200000000000000000000000000000000000000000118768107380         m333@mail.aaa.com                                                               120200906H                                                                                                                                                                                                       
00006450000010000008820201005abcabc                                                                          ME      aaaaaaaaaaaa                                                                                                                                                                                            bbbbbb                                  cccccc                                  dddddd                                  1566258********0097   20201025RMB00000000100000000000000000                00050     -00000000000046000000000000000000000000200000000000000200000000000000000000000000000000000000000000000000000000000000000000000000200000-0000000000004600000000002000000000000000000000000000200000000000000000000000000000000000000000118768107380         m444@mail.aaa.com                                                               120200906H                                                                                                                                                                                                       
00006450000010000008920201005abcabc                                                                          ME      aaaaaaaaaaaa                                                                                                                                                                                            bbbbbb                                  cccccc                                  dddddd                                  1566258********0097   20201025RMB00000000100000000000000000                00050     -00000000000046000000000000000000000000200000000000000200000000000000000000000000000000000000000000000000000000000000000000000000200000-0000000000004600000000002000000000000000000000000000200000000000000000000000000000000000000000118768107380         m555@mail.aaa.com                                                               120200906H                                                                                                                                                                                                       
00006450000010000009020201005abcabc                                                                          ME      aaaaaaaaaaaa                                                                                                                                                                                            bbbbbb                                  cccccc                                  dddddd                                  1566258********0097   20201025RMB00000000100000000000000000                00050     -00000000000046000000000000000000000000200000000000000200000000000000000000000000000000000000000000000000000000000000000000000000200000-0000000000004600000000002000000000000000000000000000200000000000000000000000000000000000000000118768107380         m111@mail.aaa.com                                                               120200906H                                                                                                                                                                                                       
00006450000010000009120201005abcabc                                                                          ME      aaaaaaaaaaaa                                                                                                                                                                                            bbbbbb                                  cccccc                                  dddddd                                  1566258********0097   20201025RMB00000000100000000000000000                00050     -00000000000046000000000000000000000000200000000000000200000000000000000000000000000000000000000000000000000000000000000000000000200000-0000000000004600000000002000000000000000000000000000200000000000000000000000000000000000000000118768107380         m222@mail.aaa.com                                                               120200906H                                                                                                                                                                                                       
00006450000010000009220201005abcabc                                                                          ME      aaaaaaaaaaaa                                                                                                                                                                                            bbbbbb                                  cccccc                                  dddddd                                  1566258********0097   20201025RMB00000000100000000000000000                00050     -00000000000046000000000000000000000000200000000000000200000000000000000000000000000000000000000000000000000000000000000000000000200000-0000000000004600000000002000000000000000000000000000200000000000000000000000000000000000000000118768107380         m333@mail.aaa.com                                                               120200906H                                                                                                                                                                                                       
00006450000010000009320201005abcabc                                                                          ME      aaaaaaaaaaaa                                                                                                                                                                                            bbbbbb                                  cccccc                                  dddddd                                  1566258********0097   20201025RMB00000000100000000000000000                00050     -00000000000046000000000000000000000000200000000000000200000000000000000000000000000000000000000000000000000000000000000000000000200000-0000000000004600000000002000000000000000000000000000200000000000000000000000000000000000000000118768107380         m444@mail.aaa.com                                                               120200906H                                                                                                                                                                                                       
00006450000010000009420201005abcabc                                                                          ME      aaaaaaaaaaaa                                                                                                                                                                                            bbbbbb                                  cccccc                                  dddddd                                  1566258********0097   20201025RMB00000000100000000000000000                00050     -00000000000046000000000000000000000000200000000000000200000000000000000000000000000000000000000000000000000000000000000000000000200000-0000000000004600000000002000000000000000000000000000200000000000000000000000000000000000000000118768107380         m555@mail.aaa.com                                                               120200906H                                                                                                                                                                                                       
